:020000040800F2
:1000000000500020F10000084101000841010008F3
:100010004101000841010008410100080000000002
:100020000000000000000000000000004101000886
:1000300041010008000000004101000841010008E2
:100040004101000841010008410100084101000888
:100050004101000841010008410100084101000878
:100060004101000841010008410100084101000868
:100070004101000841010008410100084101000858
:100080004101000841010008410100084101000848
:100090004101000841010008410100084101000838
:1000A0004101000841010008410100084101000828
:1000B0004101000841010008410100084101000818
:1000C0004101000841010008410100084101000808
:1000D00041010008410100084101000841010008F8
:0C00E00041010008410100084101000836
:1000F0000D4885460D480E490E4A914200D304E052
:1001000050F8043B41F8043BF7E70B480B49002249
:10011000884200D302E040F8042BF9E700F011F820
:1001200000F04AFAFEE7000000500020282B0008EB
:10013000000000200000002000000020280900200E
:10014000FEE7704780215023094A516100BF013BFF
:10015000FCD140215023064A116100BF013BFCD174
:1001600080215023024A116100BF013BFCD170473E
:10017000000C014030B408228025402416490306B3
:1001800027D44D61282300BF013BFCD150230C61D3
:1001900000BF013BFCD1531E400013F0FF024C6135
:1001A000C0B2ECD1802228230A6100BF013BFCD100
:1001B00040215023084A116100BF013BFCD130BCF3
:1001C0004022054B5A6198686FEAD01000F0010098
:1001D00070470D61D6E700BF000C014038B580259F
:1001E000402450230D490E4A10700D610C6100BF70
:1001F000013BFCD1802050230849486100BF013BEE
:10020000FCD14021054B59611078400000F0FE0000
:10021000FFF7B0FFFFF796FF38BD00BF000C0140AD
:1002200000040020137843B3F0B5044600261546B9
:10023000124A04EBC1111248124F01EB020E2D3B82
:10024000DBB22C2B88BF0146724698BF57F82310AB
:100250004B1E01F1040C13F8011F634502F8011B4A
:10026000F9D18EF8056015F8013F2BB10634E2B2E2
:10027000792A0EF1060EE2D9F0BD70470000002089
:1002800024290008A82700082DE9F04F83B001F0C9
:1002900005FF3DA3D3E9002301F07AFF00223E4B86
:1002A00002F0A0F800F05AFC02460B4601F0BAFD3D
:1002B0004FF000084FF00009DFF8E0A046464F4637
:1002C000CDE900010AF5A06B01E026462F46DDE9E5
:1002D000000132463B4601F05BFF42464B4601F0CF
:1002E0009FFD04460D463AF9020F01F0E7FE224653
:1002F0002B4601F097FDD34504460D46B046B9465E
:10030000E3D102460B4601F043FF32468046894660
:100310003B463046394601F03BFF02460B4640461D
:10032000494601F07FFD22462B4680468946DDE99D
:10033000000101F02DFF32463B4601F029FF024645
:100340000B464046494601F06BFD0022002304465F
:100350000D4602F08FF990B90DA3D3E90023204692
:10036000294602F0A5F938B109A1D1E9000102F04E
:10037000D1F903B0BDE8F08F20462946F7E7002009
:1003800003B0BDE8F08F00BF182D4454FB21194085
:100390000000E0FFFFFFEF410040CF4002040020DB
:1003A0002DE9F0474FF0B00980264027DFF8FC81A7
:1003B000DFF8FCA17F4C50232661276100BF013B81
:1003C000FCD15025666100BF013DFCD167619AF800
:1003D0000000400000F0FE00FFF7CCFE002800F017
:1003E000D4802846FFF7C6FE4846FFF7C3FE5023D9
:1003F000666100BF013BFCD15023276100BF013B78
:10040000FCD15023266100BF013BFCD15023266163
:10041000276100BF013BFCD15025666100BF013D53
:10042000FCD167619AF80000400000F0FE00FFF781
:10043000A1FE002800F099802846FFF79BFE284681
:10044000FFF798FE5023666100BF013BFCD15023AB
:10045000276100BF013BFCD15023266100BF013B57
:10046000FCD150232661276100BF013BFCD1502500
:10047000666100BF013DFCD167619AF80000400051
:1004800000F0FE00FFF776FE00285ED02846FFF75A
:1004900071FE1020FFF76EFE5023666100BF013B26
:1004A000FCD15023276100BF013BFCD150232661C2
:1004B00000BF013BFCD150232661276100BF013BF7
:1004C000FCD15023666100BF013BFCD167619AF803
:1004D0000000400000F0FE00FFF74CFE28B3402073
:1004E000FFF748FEA8F1800515F8010FFFF742FE5F
:1004F0004545F9D15023666100BF013BFCD1502333
:10050000276100BF013BFCD15023266100BF013BA6
:10051000FCD109F101095FFA89F9B9F1B80F08F1C5
:1005200080087FF448AFBDE8F0875023666100BFC4
:10053000013BFCD15023276100BF013BFCD150237C
:10054000266100BF013BFCD1E3E75023666100BF99
:10055000013BFCD15023276100BF013BFCD150235C
:10056000266100BF013BFCD1A5E75023666100BFB7
:10057000013BFCD15023276100BF013BFCD150233C
:10058000266100BF013BFCD16BE75023666100BFD1
:10059000013BFCD15023276100BF013BFCD150231C
:1005A000266100BF013BFCD130E700BF7F00002087
:1005B00000040020000C01402DE9F04FA54B95B040
:1005C0001A6842F480321A601A689403FCD500213C
:1005D0001224A1489F4A04605960596841F480611F
:1005E0005960596841F4E0115960596841F480310B
:1005F0005960196841F08071196013689801FCD541
:100600005168944B21F003015160516841F002019F
:1006100051605A6802F00C02082AFAD14FF40057D0
:100620000121002041F293159A698C4E42F010028C
:100630009A618B4A546824F470045460546844F4FA
:100640000014546017619A6942F2283442F00D0296
:100650009A6172687260D6F8002822F0F002C6F83B
:100660000028DA6942F00202DA617E4A9062D562BD
:10067000516111609A6942F400729A617A4B1A6969
:1006800022F038021A611A6942F030021A61D86207
:10069000186359639A6822F460229A609A6842F457
:1006A00060229A609A6842F480129A609A680A43BB
:1006B0009A6000BF013CFCD142F2283300BF013BED
:1006C000FCD1694B9A6842F008029A609A68110757
:1006D000FCD49A68644942F004029A608B685A0715
:1006E000FCD440248021614B3C201A6822F07F42D8
:1006F0001A601A6842F0CC421A601C611961FFF757
:100700006DFD002800F00A82322242F2283300BF39
:10071000013BFCD1013AF8D180264FF0400B544FF9
:10072000DFF85091514C07F11C08502317F801AF26
:100730002661C4F810B000BF013BFCD150256661B2
:1007400000BF013DFCD1C4F814B099F8000040008E
:1007500000F0FE00FFF70EFD002800F0998028460B
:10076000FFF708FD5046FFF705FD5023666100BF07
:10077000013BFCD15023C4F810B000BF013BFCD1B9
:100780005023266100BF013BFCD14745CDD14FF43A
:1007900080620021384801F0DDFFFFF701FE4FF4D1
:1007A00080620021344801F0D5FF00214FF000099C
:1007B0000846324AFFF736FD02210020304AFFF793
:1007C00031FDFFF7EDFD2922002109A801F0C2FF4C
:1007D000C846CE462B4D2C4F234C214EDFF8ACC0E3
:1007E000002061461F4A1369DB07FCD5136923F01B
:1007F000010313612060A36843F48003A3602368AE
:100800009B07FCD5E36CA3F5006321F8023F8D4202
:10081000E9D100223CF9023F002BBCBF5B421BB276
:100820009A42B8BF1A46AC45F4D14F2A44DC0EF1C7
:10083000010E5FFA8EFEBEF1040F00F0078109F190
:10084000010919F0070FC9D1F36883F40053F3606D
:10085000C4E700BF00100240002002400000014039
:10086000001001400004004000240140000C014041
:100870002B29000800040020000000208027000829
:100880008827000802090020040900200204002033
:100890005023666100BF013BFCD15023C4F810B067
:1008A00000BF013BFCD15023266100BF013BFCD1BE
:1008B00047457FF43AAF6AE7B8F1000F34D04FF400
:1008C000AF60FFF7E1FC83464FF4C860FFF7DCFC44
:1008D00080464FF4E160FFF7D7FC82464FF4FA60A0
:1008E000FFF7D2FCC34526BFD84600230123C245EB
:1008F00094BFC24602239DF82410504588BF0323AD
:10090000012900F0AD8022D89DF8252012F00101C8
:1009100040F0BA80002B00F0D0808DF825104FF009
:1009200001084FF0000E8AE741464FF4806280488C
:1009300001F010FF414640467E4AFFF773FC02215A
:1009400040467D4AFFF76EFCFFF72AFDB7E78A1E97
:10095000022A0FD89DF8272043EA82039DF8282019
:10096000DBB20132D2B2032A8DF8273008D88DF8D5
:100970002820D4E72922002109A801F0EBFECEE7C8
:100980004FF0000802298DF8288000F0BB80032971
:100990009DF84B2000F0A18093428DF84C3008D098
:1009A0002922002109A801F0D5FE00238DF8273067
:1009B000B5E79DF829A00DF12A01524601A801F0E2
:1009C000D1FE2922414609A801F0C4FE5B4B83F801
:1009D00000A001ABBAF1000F07D013F8012B07F804
:1009E000082008F10108C245F7D101234FF00008A3
:1009F00053494FF4806207F80A804D480B70414616
:100A000001F0A8FE414640464E4AFFF70BFC02218A
:100A100040464D4AFFF706FC4C4A02211820FFF7DA
:100A200001FCFFF7BDFC4FF400534FF49672736165
:100A300042F2283300BF013BFCD1013AF8D14FF418
:100A4000005333614FF00008C646F8E62922002122
:100A500009A801F07FFEB8F1000F1BD1C646EEE6F3
:100A60009DF826203A49895C994283D1531CDBB218
:100A7000072B8DF826307FF652AF02238DF82430F5
:100A80000023ADF827304AE7032B16D0B3FA83F1E1
:100A9000490942E74FF480620021254801F05AFEDF
:100AA0000021244A0846FFF7BDFB02210020294A05
:100AB000FFF7B8FBFFF774FCC4E7531CDBB20F2B46
:100AC0008DF825307FF62BAF4FF001084FF0000E68
:100AD0008DF824808DF826E0B1E69DF84A101A447E
:100AE0009DF829008DF84B204A1CD2B269449042EF
:100AF00081F82A308DF84A203FF657AF04238DF84D
:100B0000243052E78DF82930013B1F2BADF84A8085
:100B10003FF646AF03238DF8243046E73D20FFF72C
:100B20005DFB00287FF4F0AD3C220B4B1A7036E6DB
:100B300000000020802700089427000825090020D5
:100B4000260900209C270008A4270008040900208B
:100B50004829000888270008000400201A4A21F0CC
:100B6000004393421CD930B5184A87B0934205D947
:100B700002460B4601F054F907B030BD02AA00F05E
:100B800007FADDE904230446DDE9020104F0030469
:100B9000012C0FD0022C07D084B900F019F8EBE734
:100BA0000022002300F014B800F012F801F1004117
:100BB00007B030BD009400F033F9F7E7012400944A
:100BC00000F02EF9D8E700BFFB21E93FFFFFEF7FE0
:100BD0002DE9F04F21F00048B8F1795F06460F4645
:100BE00092469B4685B06DD201F06CFD002800F066
:100BF000ED8032463B463046394601F0C9FA76A3CD
:100C0000D3E9002304460D4601F0C2FA74A3D3E9E8
:100C1000002301F007F922462B4601F0B9FA72A32E
:100C2000D3E9002301F0FCF822462B4601F0B0FA8C
:100C30006FA3D3E9002301F0F5F822462B4601F01B
:100C4000A7FA6DA3D3E9002301F0EAF822462B4668
:100C500001F09EFA6AA3D3E9002301F0E3F82246EB
:100C60002B4601F095FACDE90001002220462946E5
:100C7000654B01F08DFADDE9002380468946204668
:100C8000294601F085FA44464D468046894652463B
:100C90005B463046394601F07BFA02460B46404639
:100CA000494601F0BDF802460B462046294601F0B0
:100CB000B7F802460B460020544901F0B1F805B0E0
:100CC000BDE8F08F02460B4601F062FA42A3D3E979
:100CD000002304460D4601F05BFA41A3D3E900234B
:100CE00001F0A0F822462B4601F052FA3EA3D3E9C8
:100CF000002301F095F822462B4601F049FA3CA367
:100D0000D3E9002301F08EF822462B4601F040FA89
:100D100039A3D3E9002301F083F822462B4601F0E2
:100D200037FA37A3D3E9002301F07CF82B4622469B
:100D300001F02EFA364BCDE90001984595D9354B97
:100D4000002298453AD8A8F5001300202F49904674
:100D5000994601F065F8CDE90201002220462946B6
:100D6000294B01F015FA42464B4601F059F8DDE9EE
:100D70000023804689462046294601F009FA444668
:100D80004D468046894652465B463046394601F01C
:100D9000FFF902460B464046494601F041F802463B
:100DA0000B462046294601F03BF802460B46DDE99A
:100DB000020101F035F805B0BDE8F08F164B4FF099
:100DC0000008CDE90223DFF85490C6E700200F4960
:100DD00005B0BDE8F08F00BFD43888BEE9FAA8BDE1
:100DE000C4B1B4BD9EEE213EAD529C804F7E923E7A
:100DF0009015CB19A001FA3E7751C1166CC1563F30
:100E00004C5555555555A53F0000E03F0000F03FBB
:100E10003233D33F0000E93F0000E73F0000D23FFC
:100E20002DE9F04F83B0CDE9002321F00043B3F169
:100E3000795F04460D4604D201F044FC002800F01E
:100E4000858022462B462046294601F0A1F9064618
:100E50000F4632463B462046294601F099F93EA30B
:100E6000D3E9002382468B463046394601F090F99B
:100E70003BA3D3E9002300F0D3FF32463B4601F009
:100E800087F939A3D3E9002300F0CCFF32463B4673
:100E900001F07EF936A3D3E9002300F0C1FF32460A
:100EA0003B4601F075F934A3D3E9002300F0BAFF03
:100EB0000C9B804689469BB3DDE900010022324B42
:100EC00001F066F942464B468046894650465946EF
:100ED00001F05EF902460B464046494600F0A0FF8D
:100EE00032463B4601F054F9DDE9002300F098FF5B
:100EF00023A3D3E9002306460F465046594601F086
:100F000047F902460B463046394600F08BFF024651
:100F10000B462046294600F083FF03B0BDE8F08F62
:100F200002460B463046394601F032F914A3D3E9A4
:100F3000002300F075FF52465B4601F029F9224676
:100F40002B4600F06FFF03B0BDE8F08F2046294626
:100F500003B0BDE8F08F00BF7CD5CF5A3AD9E53D4C
:100F6000EB9C2B8AE6E55A3E7DFEB157E31DC73E5A
:100F7000D561C119A0012A3FA6F810111111813FB6
:100F8000495555555555C53F0000E03F000000004C
:100F90002DE9F04F964B21F000459D4282468B464D
:100FA00014468FB040F28B80924B0F469D4228D85A
:100FB00085A3D3E90023002940F3A08100F030FF8E
:100FC0008D4B06469D420F4600F08D8080A3D3E9ED
:100FD000002300F025FF02460B46304639461646F0
:100FE0001F4600F01DFF7AA3D3E9002300F018FF8D
:100FF000C4E900670126C4E9020130460FB0BDE82C
:10100000F08F7E4B9D4240F288807D4B9D4261D89F
:101010002E15A6F21646A5EB06594946504601F094
:1010200051FB01F04BF802460B4650464946CDE9CC
:10103000082300F0F5FE0022724B01F0A9F8894662
:10104000804601F03FFB01F039F802460B4640466E
:101050004946CDE90A2300F0E3FE0022694B01F086
:1010600097F803254FF000084FF00009CDE90C0177
:101070000DF1380A42467AE902014B46AB46013D82
:1010800001F0EEFA0028F5D102255F4932460191C0
:101090005B46214608A8009500F084F9002F06461B
:1010A000ABDA60682268E16800F10043C4E900231C
:1010B000A26801F10043C4E9022376429DE70022C1
:1010C0000023C4E900ABC4E90223002630460FB078
:1010D000BDE8F08F02460B4600F0A2FEC4E9020113
:1010E000C4E90001F1E73CA3D3E9002300F098FE36
:1010F0003BA3D3E900238046894600F091FE0646D3
:101100000F4632463B464046494600F089FE34A32E
:10111000D3E9002300F084FE6AE700F03FF932A330
:10112000D3E900238046894601F032F80022374B8C
:1011300000F078FE01F0C6FA064600F0BFFF024656
:101140000B46CDE9022320A3D3E9002301F020F8C8
:1011500002460B464046494600F062FE1CA3D3E916
:10116000002382468B46DDE9020101F011F80246B8
:101170000B4650465946CDE9042300F051FE1F2E80
:101180008046894646DC224B721E53F82230AB4221
:1011900040D042464B4650465946C4E9008900F0CB
:1011A0003FFEDDE9042300F03BFE002FC4E902010D
:1011B000BFF623AF09F10042C4E9008201F1004209
:1011C000C4E90202764218E700004054FB21F93FCF
:1011D0003163621A61B4D03D0000601A61B4D03D41
:1011E0007370032E8A19A33B83C8C96D305FE43F37
:1011F000FB21E93F7BD90240FB21F93FFB2139412B
:10120000FFFFEF7F00007041D02900080000E03FA1
:1012100050290008C9F30A53C3EB15532A15102BA4
:101220000792B6DD52A3D3E90023DDE9020100F005
:10123000AFFF8046894642464B465046594600F02D
:10124000EFFD02460B465046594692469B4600F03B
:10125000E7FD42464B4600F0E3FD47A3D3E90023F8
:1012600080468946DDE9020100F092FF42464B4686
:1012700000F0D6FD02460B4650465946CDE9042300
:1012800000F0CEFD079AC1F30A53D31A312B8046E2
:1012900089467FF77EAF3AA3D3E90023DDE9020157
:1012A00000F076FF8046894642464B4650465946F6
:1012B00000F0B6FD02460B465046594692469B4604
:1012C00000F0AEFD42464B4600F0AAFD2EA3D3E946
:1012D000002380468946DDE9020100F059FF4246BD
:1012E0004B4600F09DFD02460B4650465946CDE95F
:1012F000042300F095FD804689464AE700F092FD00
:10130000254B06469D420F4618D021A3D3E9002362
:1013100000F088FD02460B463046394616461F4609
:1013200000F07EFD1AA3D3E9002300F07BFDC4E9A1
:101330000067C4E902014FF0FF365EE60CA3D3E973
:10134000002300F06FFD0CA3D3E9002380468946FB
:1013500000F068FD06460F4632463B464046494689
:1013600000F05EFD04A3D3E9002300F05BFDDEE79F
:101370000000601A61B4D03D7370032E8A19A33B3C
:101380000000002E8A19A33BC14920259A837B398E
:101390003163621A61B4D03DFB21F93F21F0004373
:1013A000194670472DE9F04FADF5197DBF4CA29D50
:1013B0009C4612F1140F03F1FF33824654F8256066
:1013C0000B910293C0F2BC82B949D31E81FB030189
:1013D000DB17C3EBA10307930133A3EB8303DB000C
:1013E000D3180A93079A0CF1FF3316EB0309A2EB0B
:1013F000030721D409F10109B9440DF180080096D1
:1014000000244E460025C146DDF88CB2E04608E0D7
:101410005BF8270000F052FE0137B742E9E802010D
:1014200008D0002FF4DA204629460137B742E9E810
:101430000201F6D1C446009E002EC0F2AE83029C8B
:10144000AAF10801039101EBCC09A3460020002179
:101450000DF1800A0AEBCC0A70AB4FEACC0706EB21
:101460000C02002C80F295810BF1010B9345E3E80F
:1014700002010AF1080AF4D1039B009603EB070A64
:101480000CAB03EB8603043B08930CAB03EB860326
:10149000D3461F4604960A9ECDF824C00099CA0080
:1014A0000DEBC10300290192D3E970452DDDCDE993
:1014B00005670DF5E07A0DF130090AEB020800220C
:1014C0007C4B2046294600F063FE01F0FBF800F05B
:1014D000F5FD0022784B06460F4600F059FE024605
:1014E0000B462046294600F09BFC01F0EBF878E91A
:1014F000022349F8040B3946304600F093FCD045EE
:1015000004460D46DBD1DDE9056720462946324613
:1015100000F07EFB00224FF07F5304460D4600F0A2
:1015200037FE00F0F5FB0022644B00F031FE02466E
:101530000B462046294600F073FC0D46044601F098
:10154000C1F8824600F0BAFD02460B462046294605
:1015500000F066FC002E8046894640F38A80009B9E
:10156000C6F11802591E0CAB53F82130C6F117040E
:1015700043FA02F000FA02F29B1A43FA04F40CAAAE
:10158000002C824442F8213000F3F1800022002335
:101590004046494601F064F8002800F01382009BA1
:1015A000049A93420CDD00220CA901EB830353F84B
:1015B000041DBB4242EA0102F9D1002A40F0118128
:1015C000049B0CAA013B52F82330009A02F1010857
:1015D000002B40F0DC800123089A52F8041D0133EF
:1015E0000029FAD0009A1344009A09990DF1800954
:1015F0000A44079909EBC20901EB080A0AF1804A7B
:10160000A3990AF1FF3A01EB8A0A019970AA1144E1
:1016100000910596019306975AF8040F00F04EFDCD
:10162000029BE9E80201002B20DB4F460024002545
:10163000039E77E90223F6E9020100F0A9FD0246C4
:101640000B462046294600F0EDFB5E4504460D465C
:10165000EFD1009B08F10108E3E902450093019BEB
:101660009845D9DDDDE90567009317E700240025DB
:10167000EFE762D00022124B01F010F80446002878
:1016800084D0009B0AF1010A002BC8BF022440F35A
:101690007A8200210CAB53F8045B002D48D0C5F1D1
:1016A00080756FF07F4043F8045C0FE0182B000852
:1016B000ABAAAA2A0000703E000070410000204042
:1016C0000000E03F1A68821A43F8042B009A0131A7
:1016D0008A42F7DC0125002E0EDD012E00F0258167
:1016E000022E09D1009B0CA95A1E0CAB53F82230D4
:1016F000C3F3150341F82230022C7FF447AF424672
:101700004B460020AC4900F08BFB80468946002DFB
:101710003FF43CAF32460020A74900F079FA024678
:101720000B464046494600F07BFB804689462DE744
:10173000009A01318A42AEDCCDE7009B0CAA013B46
:1017400052F82340E415002C7FF720AF009B0AF1EC
:10175000010A002B9DDC022C7FF418AF42464B4659
:101760000020954900F05CFB804689460EE7009A10
:101770000AF1010A002A8CDC012E00F01E82022EE2
:10178000E9D1C3F315030CAA42F82130E3E743463D
:101790002AE7D846D3469A46CDE904C70196009277
:1017A0005F4600240025039E77E90223F6E9020143
:1017B00000F0EEFC02460B462046294600F032FBC4
:1017C0004E4504460D46EFD1009B08F101089845AF
:1017D000EAE802450BF1080BE2D1DDE904C7019EFE
:1017E0004AE60A9B009FA3F1180203940CAB7C1EEF
:1017F00053F82430049ECDF814A00A9263B907F17F
:101800008043013B0CA901EB830353F8041D013C09
:10181000183A0029F9D00A9200200A9A664900F085
:10182000F7F9002C80468946C0F2BD814FF0000ACE
:10183000671C0CAB03EB8705F90070ABDFF87CB1DC
:1018400003EBC707009155F8040D00F037FC424642
:101850004B4600F09DFC5B4667E90201524640465C
:10186000494600F095FC0CAB9D4280468946EAD182
:10187000009948A8A1F1100370AA002E01944FF01E
:10188000000B044602901A44049128DB924600257E
:101890004FF000084FF00009494F009210E0FAE9BC
:1018A0000223F7E9020100F073FC02460B464046B2
:1018B000494600F0B7FA0135AE428046894601DB61
:1018C0005D45ECDD009A019BE4E802899B45A2F1AD
:1018D00008020BF1010107D0002E8B46D6DA4FF03B
:1018E00000084FF00009EEE7A29B019C022B04992F
:1018F00000F39D80002B28DC10D1029D00206C1885
:10190000002174E9022300F08DFAA542F9D1039B6E
:10191000002B40F027810B9BC3E90001059B03F0DE
:1019200007000DF5197DBDE8F08F009B0CA95A1E2C
:101930000CAB53F82230C3F3160341F82230DBE638
:1019400000216FF0170307914AE5029B0026DDE9AD
:10195000488900279A465D18304675E902233946C2
:1019600000F060FAAA4506460F46F5D1039B4046B3
:101970004946002B40F0FA803B46324600F050FAD0
:101980000B9BC3E9006764B10126F5E90223013628
:1019900000F048FAB442F8DA039B13B101F10043B6
:1019A00019460B9BC3E90201059B03F007000DF5E7
:1019B000197DBDE8F08F00BF0000F03F0000703ED1
:1019C000D02A00080A9B40465A424946009F049E7E
:1019D000CDF814A0039400F01BF90022884B804638
:1019E000894600F05BFE002800F09D800022854BB8
:1019F0004046494600F0CCFB00F064FE054600F08E
:101A00005DFB00227E4B00F0C3FB0B4602464946BD
:101A1000404600F005FA00F055FE7C1C0CAB43F884
:101A2000270043F824500A9B18330A93F4E6A29B3C
:101A3000032B7FF473AF002C00F0CE80029B4FEAA3
:101A4000C40903EBC405A846D5E90067CDE90054F5
:101A5000049558E902453046394622462B4600F0A7
:101A6000E1F9B246BB4606460F4632463B462046A3
:101A7000294600F0D5F95B46524600F0D3F9C8E993
:101A8000000168E90267029B9845E2D1DDE900A404
:101A9000012C049D00F0A080D5E9004503F1080B5E
:101AA000CDF800905AE902672046294632463B4667
:101AB00000F0B8F9A046A94604460D4622462B463A
:101AC0003046394600F0ACF942464B4600F0AAF9E0
:101AD000CAE900016AE90245D345E3D100200021AB
:101AE000DDF80090029B09F108041C4403F1100585
:101AF00074E9022300F096F9A542F9D1DDE94856D0
:101B0000029BD3E90278039BB3B90B9BC3E90401A1
:101B1000C3E90056C3E90278059B03F007000DF501
:101B2000197DBDE8F08F4046494600F0CBFD0CAB77
:101B30003C4643F827006FE60B9B2C4606F1004518
:101B40005D601D461C6008F10043C5E90273059BFA
:101B500001F10042C5E9040203F007000DF5197D0B
:101B6000BDE8F08F01F100431946D4E60B9A07F166
:101B70000043536016603B46324600F051F9002C9A
:101B80007FF402AF0AE742464B4600201E4900F0B0
:101B900047F9022480468946F8E4AAF10803039332
:101BA0004FEACC0768E4A29B022B0FDC002B16DC6B
:101BB0007FF4B4AE00200021A9E6C3F316030CAAFB
:101BC000022C42F821307FF4E1ACC7E5A29B032B45
:101BD0007FF4A4AE48AB0293002000218EE7039B64
:101BE000DDE9480133B100224FF000430B9CC4E90A
:101BF0000023D3E6002200230B9CC4E90023D0E697
:101C0000000070410000703E0000F03F0000000046
:101C10002DE9F0411646C1F30A52074688460B46A5
:101C20006ABB21F00043034327D0334B002200F06E
:101C3000AFFA324B07469E4288463CDB0B46C1F367
:101C40000A52363A4CF250318E4221DC164440F2B0
:101C5000FE7296421CDC002E26DC16F1350F31DBBD
:101C600023F0FF4121F4E001363641EA0655002217
:101C700038462946224B00F08BFABDE8F08140F24D
:101C8000FF7C6245DED1024600F0CCF8BDE8F08171
:101C9000454615A3D3E9002363F31E0529461948D9
:101CA00000F076FABDE8F0816FF31E53384643EA40
:101CB0000651BDE8F0810EA3D3E9002300F068FAD5
:101CC000BDE8F08108F0004444F0D27141F4B7312E
:101CD00007A3D3E900230C4841F01F0100F058FA94
:101CE000CBE700BFAFF300809C7500883CE4377EF3
:101CF00059F3F8C21F6EA50100005043B03CFFFF2E
:101D00000000903C9C75008859F3F8C20000000068
:101D1000C1F30A5C2DE9F041ACF2FF35132D024608
:101D20000B460C46064622DC002D42DBDFF8E08045
:101D30000F4648FA05F801EA080C5CEA000C1BD0D3
:101D400031A3D3E9002300F06DF80022002300F056
:101D5000AFFC40B1002C03DA4FF480132B411F4439
:101D6000002627EA080421463046BDE8F081332DDD
:101D700006DDB5F5806F2CD010461946BDE8F08120
:101D80004FF0FF37ACF2134C27FA0CF73842F3D080
:101D90001DA3D3E9002300F045F80022002300F042
:101DA00087FC0028DFD0002C33461CDB23EA070623
:101DB000D9E715A3D3E9002300F034F8002200236B
:101DC00000F076FC0028CED0002C05DB002634463F
:101DD000C9E700F027F8D1E724F0004426430DD1ED
:101DE0004FF00044BFE7142D06D00122C5F13405A1
:101DF000AA4013449E42D9D90134D7E70026054CA6
:101E0000B1E700BFAFF300809C7500883CE4377EEB
:101E1000FFFF0F000000F0BF81F0004102E000BFB3
:101E200083F0004330B54FEA41044FEA430594EA9A
:101E3000050F08BF90EA020F1FBF54EA000C55EAD5
:101E4000020C7FEA645C7FEA655C00F0E2804FEAA6
:101E50005454D4EB5555B8BF6D420CDD2C4480EA88
:101E6000020281EA030382EA000083EA010180EAB8
:101E7000020281EA0303362D88BF30BD11F0004F06
:101E80004FEA01314FF4801C4CEA113102D040423C
:101E900061EB410113F0004F4FEA03334CEA133377
:101EA00002D0524263EB430394EA050F00F0A7808F
:101EB000A4F10104D5F1200E0DDB02FA0EFC22FA8A
:101EC00005F2801841F1000103FA0EF2801843FA7E
:101ED00005F359410EE0A5F120050EF1200E012A6F
:101EE00003FA0EFC28BF4CF0020C43FA05F3C018AD
:101EF00051EBE37101F0004507D54FF0000EDCF126
:101F0000000C7EEB00006EEB0101B1F5801F1BD3CE
:101F1000B1F5001F0CD349085FEA30004FEA3C0CD2
:101F200004F101044FEA445212F5800F80F09A80C8
:101F3000BCF1004F08BF5FEA500C50F1000041EBCC
:101F4000045141EA050130BD5FEA4C0C404141EBD0
:101F50000101013C28BFB1F5801FE9D291F0000FCB
:101F600004BF01460020B1FA81F308BF2033A3F17A
:101F70000B03B3F120020CDA0C3208DD02F1140C71
:101F8000C2F10C0201FA0CF021FA02F10CE002F1AC
:101F90001402D8BFC2F1200C01FA02F120FA0CFCA5
:101FA000DCBF41EA0C019040E41AA2BF01EB0451EE
:101FB000294330BD6FEA04041F3C1CDA0C340EDCEC
:101FC00004F11404C4F1200220FA04F001FA02F32F
:101FD00040EA030021FA04F345EA030130BDC4F1ED
:101FE0000C04C4F1200220FA02F001FA04F340EAE2
:101FF0000300294630BD21FA04F0294630BD94F093
:10200000000F83F4801306BF81F480110134013D79
:102010004EE77FEA645C18BF7FEA655C29D094EAEA
:10202000050F08BF90EA020F05D054EA000C04BF68
:102030001946104630BD91EA030F1EBF0021002053
:1020400030BD5FEA545C05D14000494128BF41F0F2
:10205000004130BD14F580043CBF01F5801130BD56
:1020600001F0004545F0FE4141F470014FF00000E1
:1020700030BD7FEA645C1ABF194610467FEA655C92
:102080001CBF0B46024650EA013406BF52EA033534
:1020900091EA030F41F4002130BD00BF90F0000F22
:1020A00004BF0021704730B54FF4806404F132045E
:1020B0004FF000054FF0000150E700BF90F0000F17
:1020C00004BF0021704730B54FF4806404F132043E
:1020D00010F0004548BF40424FF000013EE700BF0E
:1020E00042004FEAE2014FEA31014FEA02701FBF9E
:1020F00012F07F4393F07F4F81F06051704732F0D0
:102100007F4208BF704793F07F4F04BF41F4002126
:10211000704730B54FF4607401F0004521F0004184
:102120001CE700BF50EA010208BF704730B54FF00E
:1021300000050AE050EA010208BF704730B511F00F
:10214000004502D5404261EB41014FF4806404F147
:1021500032045FEA915C3FF4D8AE4FF003025FEACD
:10216000DC0C18BF03325FEADC0C18BF033202EB51
:10217000DC02C2F1200300FA03FC20FA02F001FAAB
:1021800003FE40EA0E0021FA02F11444BDE600BF4E
:1021900070B54FF0FF0C4CF4E06C1CEA11541DBFFD
:1021A0001CEA135594EA0C0F95EA0C0F00F0DEF8C8
:1021B0002C4481EA030621EA4C5123EA4C5350EAAD
:1021C000013518BF52EA033541F4801143F48013FE
:1021D00038D0A0FB02CE4FF00005E1FB02E506F08F
:1021E0000042E0FB03E54FF00006E1FB03569CF0E4
:1021F000000F18BF4EF0010EA4F1FF04B6F5007FEA
:1022000064F5407404D25FEA4E0E6D4146EB06065B
:1022100042EAC62141EA55514FEAC52040EA5E50E4
:102220004FEACE2EB4F1FD0C88BFBCF5E06F1ED88E
:10223000BEF1004F08BF5FEA500E50F1000041EBC5
:10224000045170BD06F0004646EA010140EA020072
:1022500081EA0301B4EB5C04C2BFD4EB0C0541EA94
:10226000045170BD41F480114FF0000E013C00F3A9
:10227000AB8014F1360FDEBF002001F0004170BDCD
:10228000C4F10004203C35DA0C341BDC04F11404E6
:10229000C4F1200500FA05F320FA04F001FA05F272
:1022A00040EA020001F0004221F0004110EBD3703F
:1022B00021FA04F642EB06015EEA430E08BF20EA6B
:1022C000D37070BDC4F10C04C4F1200500FA04F30E
:1022D00020FA05F001FA04F240EA020001F00041A0
:1022E00010EBD37041F100015EEA430E08BF20EA13
:1022F000D37070BDC4F1200500FA05F24EEA020E5B
:1023000020FA04F301FA05F243EA020321FA04F089
:1023100001F0004121FA04F220EA020000EBD37040
:102320005EEA430E08BF20EAD37070BD94F0000F40
:102330000FD101F00046400041EB010111F4801F74
:1023400008BF013CF7D041EA060195F0000F18BF25
:10235000704703F00046520043EB030313F4801F61
:1023600008BF013DF7D043EA0603704794EA0C0F1B
:102370000CEA135518BF95EA0C0F0CD050EA410631
:1023800018BF52EA4306D1D181EA030101F00041AE
:102390004FF0000070BD50EA410606BF10461946D6
:1023A00052EA430619D094EA0C0F02D150EA0136E2
:1023B00013D195EA0C0F05D152EA03361CBF104623
:1023C00019460AD181EA030101F0004141F0FE41C2
:1023D00041F470014FF0000070BD41F0FE4141F446
:1023E000780170BD70B54FF0FF0C4CF4E06C1CEA46
:1023F00011541DBF1CEA135594EA0C0F95EA0C0FFB
:1024000000F0A7F8A4EB050481EA030E52EA0335B5
:102410004FEA013100F088804FEA03334FF08055D6
:1024200045EA131343EA12634FEA022245EA111503
:1024300045EA10654FEA00260EF000419D4208BFB4
:10244000964244F1FD0404F5407402D25B084FEA61
:102450003202B61A65EB03055B084FEA32024FF40D
:1024600080104FF4002CB6EB020E75EB030E22BF6A
:10247000B61A754640EA0C005B084FEA3202B6EB2A
:10248000020E75EB030E22BFB61A754640EA5C00D9
:102490005B084FEA3202B6EB020E75EB030E22BF69
:1024A000B61A754640EA9C005B084FEA3202B6EB6A
:1024B000020E75EB030E22BFB61A754640EADC0029
:1024C00055EA060E18D04FEA051545EA16754FEA8B
:1024D00006164FEAC30343EA52734FEAC2025FEAA9
:1024E0001C1CC0D111F4801F0BD141EA00014FF038
:1024F00000004FF0004CB6E711F4801F04BF014309
:102500000020B4F1FD0C88BFBCF5E06F3FF6AFAE24
:10251000B5EB030C04BFB6EB020C5FEA500C50F1B4
:10252000000041EB045170BD0EF0004E4EEA113137
:1025300014EB5C04C2BFD4EB0C0541EA045170BD3E
:1025400041F480114FF0000E013C90E645EA060E82
:102550008DE60CEA135594EA0C0F08BF95EA0C0FB0
:102560003FF43BAF94EA0C0F0AD150EA01347FF4F8
:1025700034AF95EA0C0F7FF425AF104619462CE7CF
:1025800095EA0C0F06D152EA03353FF4FDAE104632
:10259000194622E750EA410618BF52EA43067FF483
:1025A000C5AE50EA41047FF40DAF52EA43057FF413
:1025B000EBAE12E74FF0FF3C06E000BF4FF0010C1E
:1025C00002E000BF4FF0010C4DF804CD4FEA410C82
:1025D0007FEA6C5C4FEA430C18BF7FEA6C5C1BD04F
:1025E00001B050EA410C0CBF52EA430C91EA030FD0
:1025F00002BF90EA020F0020704710F1000F91EA2D
:10260000030F58BF994208BF90422CBFD8176FEAFA
:10261000E37040F0010070474FEA410C7FEA6C5CC8
:1026200002D150EA013C07D14FEA430C7FEA6C5CCF
:10263000D6D152EA033CD3D05DF8040B704700BFFB
:102640008446104662468C461946634600E000BF49
:1026500001B5FFF7B7FF002848BF10F1000F01BD1B
:102660004DF808EDFFF7F4FF0CBF012000205DF8E6
:1026700008FB00BF4DF808EDFFF7EAFF34BF01206B
:1026800000205DF808FB00BF4DF808EDFFF7E0FF04
:1026900094BF012000205DF808FB00BF4DF808ED55
:1026A000FFF7CEFF94BF012000205DF808FB00BFBC
:1026B0004DF808EDFFF7C4FF34BF012000205DF89E
:1026C00008FB00BF4FEA410212F5001215D211D5E6
:1026D0006FF47873B3EB625212D94FEAC12343F01F
:1026E000004343EA505311F0004F23FA02F018BFA1
:1026F000404270474FF00000704750EA013005D16A
:1027000011F0004008BF6FF0004070474FF000002C
:10271000704700BF4A0011D212F5001211D20DD538
:102720006FF47873B3EB62520ED44FEAC12343F0D7
:10273000004343EA505323FA02F070474FF0000081
:10274000704750EA013002D14FF0FF3070474FF030
:102750000000704703460244934200D1704703F8DB
:10276000011BF9E70A44914200F1FF3300D17047A1
:1027700010B511F8014B914203F8014FF9D110BD8A
:1027800052582057414954004E4F205349474E411B
:102790004C00000053594E43000000005258204F97
:1027A0004B00000052583A00142900082429000860
:1027B00024290008A42800089C2800089428000860
:1027C0008C280008842800087C2800087428000849
:1027D0006C280008642800085C2800081C290008F0
:1027E0002429000824290008242900082429000895
:1027F0002429000824290008F428000824290008B6
:10280000C428000824290008BC280008242900083E
:102810002429000824290008EC280008242900089D
:10282000AC2800082429000824290008CC28000826
:10283000B428000824290008242900080C290008CD
:10284000DC280008E42800082429000824290008BE
:10285000FC28000804290008D42800083049494A07
:102860003C000000364949493600000040474850C6
:10287000600000001E2949490600000072515151B4
:102880004E0000001828487F0800000022414949F6
:1028900036000000234549512100000000217F013E
:1028A000000000003E4549513E0000007F08142210
:1028B000410000003E4141413E0000007F4949493E
:1028C000410000003E414141220000007F020C1007
:1028D0007F000000030478040300000046494949D2
:1028E0003100000001017F010100000000417F4133
:1028F000000000007E1111117E0000007F201820D2
:102900007F00000063140814630000007F09192988
:1029100046000000080808080800000000363600DD
:10292000000000000000000000000000AE2000B029
:10293000C8001040817FA1A6A83FA4D300D580D9AC
:10294000F1DA12DB408D14AF000102030302010033
:10295000FB21F93FFB2109407CD91240FB211940A2
:102960007A6A1F407CD92240BBFD2540FB212940CB
:102970003A462C407A6A2F405C4731407CD932403D
:102980009C6B3440BBFD3540DB8F3740FB21394029
:102990001BB43A403A463C405AD83D407A6A3F40E0
:1029A0004C7E40405C4741406C1042407CD94240E4
:1029B0008CA243409C6B4440AC344540BBFD454039
:1029C000CBC64640DB8F4740EB584840FB2149408F
:1029D00083F9A200444E6E00FC291500D157270050
:1029E000DD34F50062DBC0003C9995004190430066
:1029F0006351FE00BBDEAB00B761C5003A6E240038
:102A0000D24D42004906E00009EA2E001C92D10096
:102A1000EB1DFE0029B11C00E83EA700F535820041
:102A200044BB2E009CE98400B4267000417E5F0008
:102A3000D6913900538339009CF439008B5F8400B0
:102A400028F9BD00F81F3B00DEFF97000F98050036
:102A5000112FEF000A5A8B006D1F6D00CF7E3600DC
:102A600009CB2700464FB7009E663F002DEA5F0066
:102A7000BA277500E5EBC7003D7BF100F739070089
:102A800092528A00FB6BEA001FB15F00085D8D0067
:102A9000300356007BFC4600F0AB6B0020BCCF003F
:102AA00036F49A00E3A91D005E619100081BE60060
:102AB00085996500A0145F008D40680080D8FF00F4
:102AC00027734D0006063100CA561500C9A87300C9
:102AD0007BE260006B8CC00000000040FB21F93FEE
:102AE000000000002D44743E000000809846F83C31
:102AF0000000006051CC783B00000080831BF0395F
:102B00000000004020257A38000000802282E33651
:102B1000000000001DF36935020000000300000002
:082B20000400000006000000A3
:04000005080000F1FE
:00000001FF
