:020000040800F2
:1000000000500020ED0000083D0100083D010008FF
:100010003D0100083D0100083D010008000000000E
:100020000000000000000000000000003D0100088A
:100030003D010008000000003D0100083D010008EE
:100040003D0100083D0100083D0100083D01000898
:100050003D0100083D0100083D0100083D01000888
:100060003D0100083D0100083D0100083D01000878
:100070003D0100083D0100083D0100083D01000868
:100080003D0100083D0100083D0100083D01000858
:100090003D0100083D0100083D0100083D01000848
:1000A0003D0100083D0100083D0100083D01000838
:1000B0003D0100083D0100083D0100083D01000828
:1000C0003D0100083D0100083D0100083D01000818
:1000D0003D0100083D0100083D0100083D01000808
:0C00E0003D0100083D0100083D01000842
:1000EC000D4885460D480E490E4A914200D304E056
:1000FC0050F8043B41F8043BF7E70B480B4900224E
:10010C00884200D302E040F8042BF9E700F011F824
:10011C0000F09EF9FEE7000000500020BC0700082C
:10012C00000000200000002000000020040400203B
:10013C00FEE770478020402178230A4A1061116144
:10014C0000BF013BFCD180217823064A516100BFDE
:10015C00013BFCD140213C23024A516100BF013BD1
:10016C00FCD17047000C014080213C23094A5161AD
:10017C0000BF013BFCD140217823064A116100BF2E
:10018C00013BFCD180217823024A116100BF013B65
:10019C00FCD17047000C014030B40821802540246C
:1001AC001B4A030631D45561282300BF013BFCD107
:1001BC007823146100BF013BFCD13C23546100BF88
:1001CC00013BFCD14B1E400013F0FF01C0B2E8D143
:1001DC00802128230E4A116100BF013BFCD1402134
:1001EC0078230B4A116100BF013BFCD140213C2319
:1001FC00074A90685161C0F3C71000BF013BFCD1A6
:10020C0030BCC04300F0010070471561CCE700BF63
:10021C00000C0140137843B3F0B504460026154694
:10022C00124A04EBC1111248124F01EB020E333B80
:10023C00DBB21D2B88BF0146724698BF57F82310BE
:10024C004B1E01F1040C13F8011F634502F8011B4E
:10025C00F9D18EF8056015F8013F2BB10634E2B2E6
:10026C00792A0EF1060EE2D9F0BD7047000000208D
:10027C0038070008C00600082DE9F843B02780268F
:10028C00704DDFF8C481714CFFF754FF98F80000F3
:10029C00400000F0FE00FFF77FFF002800F0C18057
:1002AC000020FFF779FF3846FFF776FF3C236661A5
:1002BC0000BF013BFCD140227823226100BF013BEF
:1002CC00FCD17823266100BF013BFCD1FFF732FF44
:1002DC0098F80000400000F0FE00FFF75DFF0028DA
:1002EC0000F08E800020FFF757FF0020FFF754FF2F
:1002FC003C23666100BF013BFCD140227823226184
:10030C0000BF013BFCD17823266100BF013BFCD12F
:10031C00FFF710FF98F80000400000F0FE00FFF718
:10032C003BFF00285BD00020FFF736FF1020FFF7C3
:10033C0033FF3C23666100BF013BFCD14022782394
:10034C00226100BF013BFCD17823266100BF013B39
:10035C00FCD1FFF7EFFE98F80000400000F0FE0023
:10036C00FFF71AFF18B34020FFF716FFA5F180091D
:10037C0019F8010FFFF710FFA945F9D13C2366616D
:10038C0000BF013BFCD140227823226100BF013B1E
:10039C00FCD17823266100BF013BFCD10137FFB2B1
:1003AC00B82F05F180057FF46FAFBDE8F8833C23CF
:1003BC00666100BF013BFCD140227823226100BF63
:1003CC00013BFCD17823266100BF013BFCD10137F6
:1003DC00FFB2B82F05F180057FF456AFE5E73C235B
:1003EC00666100BF013BFCD140227823226100BF33
:1003FC00013BFCD17823266100BF013BFCD1A8E76F
:10040C003C23666100BF013BFCD140227823226172
:10041C0000BF013BFCD17823266100BF013BFCD11E
:10042C0076E73C23666100BF013BFCD14022782378
:10043C00226100BF013BFCD17823266100BF013B48
:10044C00FCD143E77F00002000040020000C014099
:10045C007F4B80B51A6842F480321A601A68920396
:10046C00FCD5002212247B48794904605A605A68F2
:10047C0042F480625A605A6842F4E0125A605A6838
:10048C0042F480325A601A6842F080721A600B682B
:10049C009B01FCD54B686E4A23F003034B604B6801
:1004AC0043F002034B60536803F00C03082BFAD1A2
:1004BC004FF40057402680253C209369664C43F04E
:1004CC00100393616168654B21F470016160616890
:1004DC0041F4001161602761916941F0080191615B
:1004EC001A6822F07F421A601A6842F0CC421A60F5
:1004FC001E615B4E1D613070FFF71CFE7820FFF70C
:10050C004BFE002800F08980FFF72EFE322242F2CB
:10051C00283300BF013BFCD1013AF8D18027514D63
:10052C004E4C05F11C0815F8013F9946FFF702FEE9
:10053C003078400000F0FE00FFF72EFE002859D066
:10054C000020FFF729FE4846FFF726FE3C23676193
:10055C0000BF013BFCD140227823226100BF013B4C
:10056C00FCD17823276100BF013BFCD1A845DAD12F
:10057C00394D4FF48062FF213B4800F081F8FFF7C2
:10058C007BFE4FF400534FF448746B6142F22833F6
:10059C0000BF013BFCD1013CF8D14FF480622146F5
:1005AC00314800F06DF821462046304AFFF732FE04
:1005BC002F4A02212046FFF72DFE337802213C2BD7
:1005CC000CBF2C4A2C4A2420FFF724FE2B4A042172
:1005DC000020FFF71FFEFFF74FFE4FF400534FF4C0
:1005EC0048722B6142F2283300BF013BFCD1013A27
:1005FC00F8D1BEE73C23676100BF013BFCD1402230
:10060C007823226100BF013BFCD17823276100BF16
:10061C00013BFCD1A84586D1AAE7FFF7A5FD3D23F8
:10062C003370FFF787FD7A20FFF7B6FD00287FF4C3
:10063C006BAFFFF799FD9622E36883F40053E360F8
:10064C0042F2283300BF013BFCD1013AF8D1F2E76A
:10065C00001002400020024000100140000C01403C
:10066C00000400209F07000800000020A8060008D6
:10067C00B00600089C060008A4060008B80600088E
:10068C0003460244934200D1704703F8011BF9E77B
:10069C003343000000000000334400004F4C45443D
:1006AC00204F4B00414444523A0000005042362047
:1006BC005042370050070008380700083807000878
:1006CC0048070008380700083807000838070008F2
:1006DC0040070008380700083807000838070008EA
:1006EC0038070008380700083807000870070008AA
:1006FC0060070008580700088007000888070008F2
:10070C0038070008380700083807000838070008C1
:10071C003807000878070008900700083807000819
:10072C003807000898070008680700080000000058
:10073C000000000000363600000000001E29494968
:10074C000600000022414949360000003E4141416B
:10075C00220000007F494949360000007F09090941
:10076C00060000007E1111117E0000007F0814228B
:10077C00410000007F4141221C0000007F49494993
:10078C00410000007F404040400000003E4141419C
:10079C003E000000AE2000B0C8001040817FA1A632
:1007AC00A83FA4D300D580D9F1DA12DB408D14AF69
:04000005080000ED02
:00000001FF
